:020000040800F2
:1000000068070020E5010008A9170008A1170008EB
:10001000A5170008B9110008DF1F00080000000044
:10002000000000000000000000000000911900081E
:100030004D1400080000000079180008A51A0008F7
:10004000FF010008FF010008FF010008FF01000890
:10005000FF010008FF010008FF010008FF01000880
:10006000FF010008FF01000851140008FF0100080B
:10007000FF010008FF010008FF010008FF01000860
:10008000FF010008FF010008FF010008FF01000850
:10009000FF010008FF010008FF010008FF01000840
:1000A000FF010008FF010008FF010008FF01000830
:1000B000FF010008091B0008FF010008FF010008FC
:1000C000FF010008FF010008FF010008FF01000810
:1000D000FF010008BD1D0008FF010008FF01000826
:1000E000FF010008FF010008FF010008FF010008F0
:1000F000FF010008FF010008FF010008FF010008E0
:10010000FF010008FF010008FF010008FF010008CF
:10011000FF010008FF010008FF010008FF010008BF
:10012000FF010008FF010008FF010008FF010008AF
:1001300000F002F800F047F80AA090E8000C8244B2
:100140008344AAF10107DA4501D100F03CF8AFF28F
:10015000090EBAE80F0013F0010F18BFFB1A43F0A5
:1001600001031847502E0000702E0000103A24BFE3
:1001700078C878C1FAD8520724BF30C830C144BF0C
:1001800004680C607047000000230024002500264E
:10019000103A28BF78C1FBD8520728BF30C148BFEA
:1001A0000B607047662902F0B986002070471FB5C2
:1001B00000F09EFA04000020002102F039F9E0600E
:1001C0001FBD10B510BD00F0ABFB1146FFF7EFFFF0
:1001D00001F0A2FF00F0C9FB03B4FFF7F2FF03BC7C
:1001E00001F013FF0948804709480047FEE7FEE792
:1001F000FEE7FEE7FEE7FEE7FEE7FEE7FEE7FEE7D7
:1002000004480549054A064B70470000A91A000832
:100210003101000868010020680700206803002001
:1002200068030020704700000FB4044910B503AA0A
:10023000029800F04BFA10BC5DF814FB0C00002093
:100240002DE9F0410E460446002020622046E16878
:10025000884730B3252805D0D4E901219047206A8A
:10026000401CF2E7E168204600278847050018D0C7
:10027000A5F14100192802D820354FF40067324615
:10028000294620462760FFF78DFF40B1012804D0A2
:10029000F61D26F007060836D8E7361DD6E72846AD
:1002A000DAE7206ABDE8F081704770477047704711
:1002B00070472DE9FF4F0C461E464FF0FF378BB0BD
:1002C000D2E90001DDF860800A908A46C1F30A5540
:1002D00005B93D46002108464FF00000BAF1000F75
:1002E00000F4400005DA00EB80004FF4400101EA21
:1002F00050004FEA9059B9F1010F00DDB9460A9854
:1003000050EA4A000ED044F61050A5F2FF3545439E
:100310002F14B8F1000F1ED07542291E1EDDC9F141
:1003200000021CE0B8F1010F4FF0000001D03021B5
:1003300003E0F24305E02154401CB042FBDB3046B1
:100340000022002121540B99C1F80880C1E9002046
:100350000FB0BDE8F08FBD1B6D1CDEE74A4600DA2A
:10036000694206A800F066FA06AB93E8070003AB03
:1003700083E8070050460A9900F040FB8DE807002B
:10038000A0F500501F3800900398002D09DD42F2BF
:100390001F014A46084403A90390684600F09FFDE8
:1003A00008E0A0F500504A461F3803A903906846AC
:1003B00000F0A9FD8DE807000004000C03D04FF009
:1003C000FF30410800E01046B8F1000F03D00022D2
:1003D000009215461EE0751E05D400F08DF93032EE
:1003E00062556D1EF9D5B3460122084302D00022A2
:1003F0007F1C04E02078302801D100227F1E002AD3
:10040000099786D01DE0112D07DA00F075F930321A
:1004100062556D1C50EA0102F5D1084302D00098E4
:10042000C8B10EE00021681E05E0235C625C6354E5
:100430002254401E491C8142F7DBAB46A81B401EDC
:100440000990002004F80B000B98099AC0F8088066
:10045000C0E9002B7CE711264FF0000859E72DE991
:10046000F04F88460446D21D22F0070191B0D1E931
:100470000001CDE90A0101F0B4FD02460B98C00F5E
:1004800001D02D2007E02068810701D52B2002E054
:10049000202101EAC000032A099001D0072A05DBC8
:1004A00003464146204600F085F90BE1207880069E
:1004B00001D5E06900E00620B8F1650F814606D05D
:1004C000B8F1660F18D0B8F1670F70D131E0002095
:1004D000B9F1110F009001DB112301E009F10103D3
:1004E0000AAA01A90CA8FFF7E4FEDDE90C700026BA
:1004F00009F10105834647E001204B4600904FF08B
:1005000000470AAA01A90CA8FFF7D3FEDDE90DB048
:100510000C995D46002610B909F101000D18B9EBE0
:10052000050003D4C0F1FF3609F10105A5EB090070
:100530002BE0B9F1010F01DA4FF001090020B9F108
:10054000110F0090484601DD112300E003460AAA7E
:1005500001A90CA8FFF7ADFEDDE90C704D460026A1
:100560008346207800070AD4AB4500DA5D4601A82F
:10057000012D04DD411911F8011C302907D04F4528
:1005800002DA17F1040F04DA012082460FE06D1E33
:10059000EEE7002F02DCED1B3E4403E0781CA8428E
:1005A00000DD7D1CB81B00F1010A4FF000472078E8
:1005B000000703D4AA4501DB4FF0FF3A0021B7F151
:1005C000004F0DF143088DF8431024D002202B2357
:1005D000002F01DA7F422D230A21021EA0F1010023
:1005E00000DC5FB197FBF1FC97FBF1F201FB1C7C97
:1005F00017460CF1300C08F801CDEEE7A8F1010028
:1006000003702188090501D5452100E06521A0F18D
:10061000010800F8011C09980FA9A1EB0807FF1DAC
:1006200000B10120411901EBEA70A1693844081AB0
:10063000401EA0612078C00602D42046AFF300809F
:10064000099828B1D4E901219047206A401C206212
:100650002078C00622D52046AFF300801EE0002E91
:1006600004DBB34502DD01A8805D00E03020D4E961
:1006700001219047206A401C2062761CAAF10100EB
:100680005FEA000A0AD100F033F8C0680168405CF4
:10069000D4E901219047206A401C2062281EA5F160
:1006A0000105DCDC07E0D4E9012118F8010B9047D3
:1006B000206A401C2062381EA7F10107F3DC2046A7
:1006C000AFF30080032011B043E60000074B70B584
:1006D0000D467B4400F05BF80446284600F018F90C
:1006E00010B14FF0FF3070BD204670BDCB19000037
:1006F000004870472401002030B5B0F10A024FEAEB
:10070000900E71F100034EEA817EB0EB0E0061EBBA
:1007100091014FEA101E4EEA017E10EB0E0041EBF4
:1007200011114FEA102E4EEA016E10EB0E0041EB54
:1007300011214FEA104E4EEA014E10EB0E0041EB34
:100740001141401841F100014FEAD00040EA4170E8
:100750004FEAD10110EB80054FEA810444EA90741E
:1007600044EB01046D1944EB0404521BA3414FF008
:10077000000348BF0A3200D530BD401C41F10001E2
:1007800030BD000001694A1C02610878704700B55D
:100790008FB0CDE901310021059105497944CDE9BA
:1007A000031011466846FFF74BFD0FB000BD000077
:1007B000E5FFFFFF2DE9F0411F46044603260168CF
:1007C000072A01F4006004DB08B116A505E016A5B0
:1007D00003E008B115A500E015A521F01000206088
:1007E000A069C01EA0610FB1401EA0612046AFF3FA
:1007F00000804FB1D4E9012138469047206A401C5F
:100800002062C01C206206E0206AFAE7D4E90121D8
:1008100015F8010B9047761EF8D22046AFF3008002
:10082000BDE8F0814E414E006E616E00494E4600BB
:10083000696E66002DE9F047814616468AB0334856
:1008400078440DC88DE80D0030487844801C03AC16
:100850000DC884E80D0041F69B300844372190FB19
:10086000F1F290FBF1F5A5F1800501FB12041B3CB0
:1008700002D56442012000E00020DFF890A080460D
:100880000027FA44AAF1BE0A0DE0E00709D032467B
:10089000684607EB47010AEB810100F034FB8DE865
:1008A000070064107F1C002CEFD1184F7F44AC3F31
:1008B00018E0E80714D007EB04100DF1180A90E8CF
:1008C0000E008AE80E00C068F04201D19819089025
:1008D000324606A903A800F016FB03AB83E8070025
:1008E0006D10641C002DE4D132466946B8F1000F4A
:1008F00003A802D000F0F3FA01E000F004FBC9E91C
:100900000001C9F808200AB0BDE8F08758270000A8
:10091000007B00F080007047004870470401002011
:100920007546FFF7F9FFAE4605006946534620F0CD
:100930000700854618B020B5FFF762FCBDE82040EF
:100940004FF000064FF000074FF000084FF0000B8B
:1009500021F00701AC46ACE8C009ACE8C009ACE83E
:10096000C009ACE8C0098D46704710B50446AFF326
:1009700000802046BDE81040FFF72EBC4FF0013C40
:1009800050F8042B51F8043B9A4221D1A2EB0C03FE
:10099000934313EACC1317D150F8042B51F8043BBE
:1009A0009A4215D1A2EB0C03934313EACC130BD15B
:1009B00050F8042B51F8043B9A4209D1A2EB0C03E6
:1009C000934313EACC13DBD04FF00000704700BF15
:1009D000D01A01BAB1FA81F101F0180122FA01F03E
:1009E000CB40C1F12001DBB2C0B2C01A2CFA01F336
:1009F000D11A914311EAC311E6D170475FEA400C66
:100A000008BF91F0000F4FEA8C234FEAC12243EA5E
:100A100051514FEA1C5018BF00F5F0404FEA30002A
:100A200018BF41F000415FEA6C5C00F02980BCF126
:100A3000FF3F08BF40F080407047130C06BF120410
:100A40004FF0100C4FF0000C130E04BF12020CF10B
:100A5000080C130F04BF12010CF1040C930F04BF18
:100A600092000CF1020CD30F04BF52000CF1010CE8
:100A700011464FF00002A0F11F00A0EB0C007047E0
:100A800011F0004F08BF704731F000413FF4D5AF7F
:100A90000B0C06BF09044FF0100C4FF0000C0B0EAE
:100AA00004BF09020CF1080C0B0F04BF09010CF183
:100AB000040C8B0F04BF89000CF1020CCB0F04BF98
:100AC00049000CF1010CCCF12003A0EB0C0022FA40
:100AD00003F302FA0CF241EA030100F1010070474E
:100AE00020F07F4C80EA030023F07F47ACEB070344
:100AF00003F57C5300F0004003F1FF032DE980492A
:100B00004FEA154B09B44FEA144325EA0B4E24EA89
:100B100003480FF2042606EB132749083E785FEAE4
:100B2000320203FB0667C7F5000707FB06F64FEA2C
:100B300054374FEAD64606F1020607FB066CCCF1A5
:100B4000005C4FEA1C472CEA074C07FB06F40CFB41
:100B500006F504EB15464FEA961634BF00204FF019
:100B600000404FEAD13706FB07FC4FEA1C4C0CFB58
:100B70000BF7D21B03FB0CF761EB07010CFB0EF725
:100B8000B0EB074072EB17420CFB08F734BFA2EB47
:100B90000742B2EB074261EB17414FEA0C444FEAC0
:100BA000910706FB07FC4FEA1C4C0CFB0BF7B0EB64
:100BB000C74072EB573203FB0CF734BFA2EBC742BE
:100BC000B2EBC74261EB57310CFB0EF7B0EBC7003D
:100BD00072EB57720CFB08F734BFA2EBC702B2EB03
:100BE000C70261EB5771039F4FEA816141EA92119D
:100BF00004EBCC044FEAD1374FEA826206FB07FCD4
:100C000042EA90124FEA80604FEA1C4C0CFB0BF753
:100C1000D21B03FB0CF761EB07010CFB0EF7B0EBEB
:100C2000074072EB17420CFB08F734BFA2EB0742F8
:100C3000B2EB074261EB17414FEA8C554FEA91073F
:100C400004EB9C2406FB07FC4FEA1C4C0CFB0BF747
:100C5000B0EBC74072EB573203FB0CF734BFA2EB8B
:100C6000C742B2EBC74261EB57310CFB0EF7B0EB5A
:100C7000C70072EB57720CFB08F734BFA2EBC70238
:100C8000B2EBC70261EB577115EB4C254FEA81615E
:100C900041EA92114FEA82624FEAD13742EA90125A
:100CA00006FB07FC44F100044FEA80604FEA1C4C4D
:100CB0000CFB0BF7D21B03FB0CF761EB07010CFBE2
:100CC0000EF7B0EB074072EB17420CFB08F734BF8E
:100CD000A2EB0742B2EB074261EB174115EB1C1583
:100CE0004FEA813141EA92414FEA823242EA904230
:100CF0004FEA80304FEA0C7644F1000448EA03439F
:100D00004EEA0B484FF0000EB2EB080C71EB0307F4
:100D100024BF624639464EEB0E0E4FF0000B001812
:100D2000524149414BEB0B0BB2EB080C71EB030743
:100D30007BF1000B24BF624639464EEB0E0E4FF09E
:100D4000000B0018524149414BEB0B0BB2EB080C66
:100D500071EB03077BF1000B24BF624639464EEB73
:100D60000E0E51EA020718BF46F0010616EB0E768A
:100D700055F1000254F1000103D5BDE88901BDE839
:100D80000088BDE88901BDE80048B619524141EB31
:100D90000101A3F10103704780807F7E7D7C7B7A17
:100DA0007978777676757473727171706F6E6E6D17
:100DB0006C6C6B6A6A6968686766666564646363BD
:100DC00062616160605F5F5E5E5D5D5C5C5B5B5A43
:100DD0005A595958585757565655555554545353B0
:100DE00052525251515050504F4F4F4E4E4D4D4D0B
:100DF0004C4C4C4B4B4B4A4A4A4949494848484756
:100E00004747474646464545454444444443434393
:100E10004342424242414141002B26D4770021D037
:100E20001CB54FEA370703B44FF010004FF0100124
:100E30004FF000000FBCBDE810400BF1010BBBF1FF
:100E4000010F08BF5FEA170722BF12F1010211F17B
:100E500001014FF0004143F1000300F0004043EA7C
:100E600000007047F9D35708DAE746EA064613F15F
:100E7000400F4FEA16461FDD13F1200FDFBF164368
:100E80000A46002120335B42C8D0C3F1200746EA5E
:100E9000064602FA07F74FEA164646EA0706C3F186
:100EA000200722FA03F201FA07F721FA03F14FF0C3
:100EB000000342EA0702B1E746EA020646EA0646AE
:100EC0004FEA164646EA0106BCBF46EA0646360C1D
:100ED0004FF000034FF000024FF000019EE72DE9B4
:100EE000C048934630B491E8380007C831EA400C56
:100EF00048BF34EA430C03D5FFF7F2FDFFF78CFF40
:100F0000F0BCBDE800882DE9C048934630B491E8B4
:100F1000380007C810F0804F08BF13F0804F03D18E
:100F200000F005F8FFF778FFF0BCBDE8008820F07E
:100F30007F4780EA030023F07F4C07EB0C03A3F507
:100F40007C5300F00040A3F1FE0392F0000F00F08C
:100F5000B38095F0000F00F077802DE901494FEA4A
:100F600011404FEA144621EA004800FB06FC24EA3F
:100F7000064708FB06F607FB08F800FB07F718EB27
:100F800006484CEB164C4FEA124B18EB07484FEA59
:100F900015464CEB174022EA0B4E0BFB06FC25EAEC
:100FA00006470EFB06F607FB0EFE0BFB07F71EEBD4
:100FB000064E4CEB164C4FF000061EEB074E4CEB6A
:100FC000174B18EB0B0840F1000018EB0E0B58EB19
:100FD000000840F100008F1A4FF000013CBFC943E8
:100FE000661B14BFB5EB040C00213CBFC943F61BC4
:100FF0004FEA17444EEA8E0E27EA04454FEA1C4793
:1010000004FB07622CEA074C05FB07F70CFB05F60F
:1010100004FB0CFC16EB074642EB174216EB0C46A2
:1010200042EB1C421BEB060658EB0202414146EA2A
:101030009E0601D5BDE80189B619524141EB010177
:10104000A3F10103BDE801894FEA14454FEA1147B6
:1010500024EA054621EA074C05FB07F406FB07F7DF
:101060000CFB06F105FB0CFC11EB074144EB1744AC
:101070004FEA124711EB0C4144EB1C4422EA074CA7
:1010800005FB07F206FB07F70CFB06F605FB0CFC5D
:1010900016EB074642EB174216EB0C4642EB1C459B
:1010A0006A1854F1000148BF7047B619524141EB2C
:1010B0000101A3F10103704795F0000F37D04FEA0B
:1010C00011424FEA144721EA024624EA074C02FB88
:1010D00007F106FB07F70CFB06F402FB0CFC14EB14
:1010E000074441EB17414FEA154714EB0C4441EB21
:1010F0001C4125EA074C02FB07F506FB07F70CFB32
:1011000006F602FB0CFC16EB074645EB174516EB03
:101110000C4645EB1C42121951F1000148BF7047C3
:10112000B619524141EB0101A3F1010370474FEAA7
:1011300014454FEA114724EA054621EA074C05FB0E
:1011400007F106FB07F70CFB06F24FF0000605FB64
:101150000CFC12EB074241EB174112EB0C4251EB36
:101160001C4148BF7047921841EB0101A3F10103F4
:101170007047000008B50121082000F08FFB4020D7
:10118000ADF8000018208DF8030003208DF8020050
:101190006946044800F02CFA4021024800F0B3FAF6
:1011A00008BD0000000C014010B50121014800F00D
:1011B000D1FC10BD0008004000BFFEE710B50024C0
:1011C0001548006820F4702013490860084600683C
:1011D00040F40020086004E0601CC4B2012000F06C
:1011E00039FF0E48006808B1C82CF5DBC82C01DBBC
:1011F000012010BD002404E0601CC4B2012000F0F6
:1012000029FF0648006808B9F02CF5DBF02C01DB5B
:101210000120EEE70020ECE7040801403001214204
:101220002DE9F84F00F0CCF800F0A8F8FFF7C6FF62
:10123000CC2000F0D1F8BE2000F0CEF800F08CF801
:10124000834600F089F80446072C08DDE043C4B269
:101250006FEA0B0000F0FF0B4FF0000A01E04FF0C7
:10126000010AA1464FEA09200FFA80F909EB0B00A9
:101270000FFA80F9484601F089FD009001F04EFD1B
:1012800007460022084B01F061FB054601F018FB00
:101290000FFA80F9BAF1000F02D04846BDE8F88F86
:1012A000C9F1000000B2F9E70000E43F08B50121F0
:1012B000042000F0F3FA4FF48050ADF80000102045
:1012C0008DF8030003208DF802006946064800F0FF
:1012D0008FF94FF48051044800F017FA00F04EF8EF
:1012E000FFF76CFF08BD00000008014010B517486B
:1012F000006820F47020154908600846006840F432
:1013000040300860002012490860022000F0A2FE70
:1013100001201049C1F8B0010C48006820F4702089
:101320000A4908600846006840F4002008600C2064
:1013300000F090FE06488038006808B1012400E003
:101340000024322000F086FE204610BD0408014033
:10135000B00121420000214270B50026012508E0BD
:10136000FFF7C4FF0446E00140EA6600C6B2681C0D
:10137000C5B2082DF4DD304670BD000010B50D4833
:10138000006820F470200B4908600846006840F4AB
:101390004030086000200849086040F2EE2000F06C
:1013A00059FE01200549C1F8B0010F2000F052FE9E
:1013B00010BD000004080140B0012142000021429C
:1013C00010B5FFF7DBFFFFF7F9FECC2000F004F8C3
:1013D000442000F001F810BD70B5044618480068BC
:1013E00020F47020164908600846006840F4403038
:1013F0000860012520E004F0010664106EB10020B1
:1014000010490860022000F025FE01200E49C1F8B5
:10141000B0013C2000F01EFE0CE0002009490860ED
:101420003C2000F017FE01200749C1F8B00102205E
:1014300000F010FE681CC5B2082DDCDD70BD000098
:1014400004080140B0012142000021427047000021
:1014500010B5102000F04EF848B10021044800F00B
:1014600079FB012003490860102000F03DF810BD11
:1014700000040040080000201FB50121092000F0F1
:101480000DFA1020ADF80C0028208DF80F00032075
:101490008DF80E0003A9134800F0AAF804210120DA
:1014A00000F086F81020019000208DF80800082038
:1014B0008DF8090001208DF80A0001A800F02EF82F
:1014C000102000F011F80A208DF8000000208DF89F
:1014D00001008DF8020001208DF80300684600F03D
:1014E00065F91FBD000C014001490860704700000C
:1014F00014040140014600200022074B1B6803EA48
:101500000102054B14331B680B4013B10AB10120D3
:1015100000E0002070470000000401400021234942
:101520008279002A3AD00A46126803689A430B4629
:101530001A600A1D126803689A430B1D1A6002792B
:1015400011440A6803681A430A60184A083212688C
:1015500003689A43154B08331A601A1D1268036812
:101560009A43124B0C331A604279102A0ED11A1F7B
:10157000126803681A430D4B08331A601A1D12686B
:1015800003681A43094B0C331A600DE0074942798E
:1015900011440A6803681A430A6005E0027911449D
:1015A0000A6803689A430A6070470000000401401B
:1015B00030B500228B071C0F0F2303FA04F20B4BEC
:1015C0008C1053F824309343084C8D1044F8253088
:1015D00023468C1053F824308C07240F00FA04F4AF
:1015E0002343024C8D1044F8253030BD08000140E3
:1015F0002DE9F041024600250026002000230024AA
:10160000002791F803C00CF00F0591F803C00CF00F
:10161000100CBCF1000F03D091F802C04CEA050594
:1016200091F800C0BCF1000F31D0146800202BE00D
:101630004FF0010C0CFA00F3B1F800C00CEA0306FD
:101640009E4220D183004FF00F0C0CFA03F7BC43ED
:1016500005FA03FC4CEA040491F803C0BCF1280F1E
:1016600006D14FF0010C0CFA00FCC2F814C00AE0DD
:1016700091F803C0BCF1480F05D14FF0010C0CFAF2
:1016800000FCC2F810C0401C0828D1D31460B1F887
:1016900000C0BCF1FF0F34DD546800202EE000F1E3
:1016A000080C4FF0010808FA0CF3B1F800C00CEA7E
:1016B00003069E4221D183004FF00F0C0CFA03F772
:1016C000BC4305FA03FC4CEA040491F803C0BCF1E6
:1016D000280F05D100F1080C08FA0CF8C2F81480A4
:1016E00091F803C0BCF1480F07D100F1080C4FF08E
:1016F000010808FA0CF8C2F81080401C0828CED364
:101700005460BDE8F081416170470161704700009D
:1017100010B500BF074800784FF47A7100FB01F460
:10172000054800F023FA04440020034924310880CE
:10173000204610BD04000020000400402DE9F14FB8
:1017400086B0002005900490FFF7E2FF0590069810
:1017500001F0E4FA06460F46059801F017FB0190E8
:1017600001F0DCFA80460C4A0C4B01F0EFF83246EF
:101770003B46CDE9020101F0E9F8044600224FF0B2
:10178000804300F045FF824600F068FE0490049814
:1017900007B0BDE8F08F00002D431CEBE2361A3F86
:1017A00000BFFEE700BFFEE77047000070B50021F4
:1017B00000230F22C47804B3154C246804F4E064B9
:1017C000C4F5E064210AC1F10403CA40447804FA74
:1017D00003F184781440214309010E4C0678A15589
:1017E000047804F01F050124AC4005786D11AD00AC
:1017F00005F1E025C5F8004109E0047804F01F0573
:101800000124AC40044D0678761145F8264070BDA1
:101810000CED00E000E400E080E100E010B5002104
:10182000054800F076FA00200449087001210248BA
:1018300000F090F910BD00000004004004000020FA
:1018400008B50121082000F029F88020ADF800003B
:1018500018208DF8030003208DF802006946044823
:10186000FFF7C6FE0121034800F074F908BD00002F
:10187000000C0140000800407047000029B1064AF2
:10188000D2690243044BDA6104E0034AD26982431D
:10189000014BDA61704700000010024029B1064A8E
:1018A00092690243044B9A6104E0034A92698243BD
:1018B000014B9A61704700000010024030B50021D2
:1018C0000022002400232D4D6D6805F00C0121B18C
:1018D000042905D0082923D105E0294D056022E01F
:1018E000274D05601FE0254D6D6805F47012234DEE
:1018F0006D6805F48034022505EB92421CB9214D38
:10190000554305600BE01D4D6D6805F400351DB1B4
:101910001C4D5543056002E0194D5543056002E03A
:10192000174D056000BF00BF144D6D6805F0F00154
:101930000909154D6B5C0568DD4045600F4D6D680C
:1019400005F4E061090A104D6B5C4568DD40856077
:101950000A4D6D6805F46051C90A0B4D6B5C456812
:10196000DD40C560054D6D6805F44041890B074DAC
:101970006B5CC568B5FBF3F5056130BD0010024036
:1019800000127A0000093D00120000202200002011
:10199000704710B500F002F810BD00000CB5002033
:1019A000019000903348006840F48030314908606D
:1019B00000BF3048006800F4003000900198401CDF
:1019C0000190009818B90198B0F5A06FF1D129489D
:1019D000006800F4003010B10120009001E0002008
:1019E00000900098012843D12348006840F010007F
:1019F000214908600846006820F007000860084692
:101A0000006840F0020008601A48406819494860C0
:101A10000846406848600846406840F48060486076
:101A20000846406820F47C1048600846406840F44E
:101A3000E81048600846006840F08070086000BF09
:101A40000C48006800F000700028F9D00948406890
:101A500020F00300074948600846406840F0020053
:101A6000486000BF0348406800F00C000828F9D126
:101A70000CBD00000010024000200240042808D1E4
:101A80004FF0E021096941F004014FF0E0221161BB
:101A900007E04FF0E021096921F004014FF0E02256
:101AA000116170477047000010B51348006840F09E
:101AB00001001149086008464068104908400E4975
:101AC0004860084600680E4908400B49086008460F
:101AD000006820F4802008600846406820F4FE007A
:101AE00048604FF41F008860FFF753FF4FF000601D
:101AF0000449086010BD0000001002400000FFF81B
:101B0000FFFFF6FE08ED00E010B50121064800F0E9
:101B100030F840B10121044800F019F8034800787A
:101B2000401C0249087010BD000400400400002061
:101B300021B1028842F08002028004E002884FF660
:101B40007F731A4002807047CA4302827047CA43BB
:101B50000282704721B1028842F00102028004E053
:101B600002884FF6FE731A40028070470146888C47
:101B7000704730B50246002000230024158A05EA8C
:101B80000103958905EA010413B10CB1012000E0BD
:101B9000002030BD1AB183890B43838102E0838921
:101BA0008B4383817047000070B50024002200231E
:101BB000058C4FF6FE7635400584028C8388048BB5
:101BC0004FF68F752C40B51E2C400D882C43751E8A
:101BD0002A400D892A434D882A43144DA8420BD030
:101BE000134DA84208D0134DA84205D0124DA8426B
:101BF00002D0124DA84213D14FF6F7752A404D89F5
:101C00002A434FF6FB752A408D882A434FF6FF651D
:101C10002B404FF6FF552B408D892B43CD892B430D
:101C200083800483CD888586028470BD002C0140AA
:101C300000340140004001400044014000480140A0
:101C40000A460021018B4FF6F773194011430183B7
:101C50007047000070B5002400220023058C4FF669
:101C6000EF7635400584028C8388048B48F6FF7537
:101C70002C404FF6FF452C400D884FF6FF7606EAC4
:101C800005252C434FF6DF752A400D8906EA051518
:101C90002A434D8806EA05152A43154DA84202D06D
:101CA000144DA8421DD14FF67F752A404D894FF63D
:101CB000FF7606EA05152A434FF6BF752A408D8840
:101CC00006EA05152A434FF6FF352B404FF2FF7504
:101CD0002B408D8906EA85052B43CD8906EA8505CB
:101CE0002B4383800483CD880587028470BD000068
:101CF000002C0140003401400A460021018B4FF2C4
:101D0000FF7319404FF6FF7303EA0223194301835F
:101D10007047818470470000002202881D4B984262
:101D20000ED01D4B98420BD0B0F1804F08D01B4B0A
:101D3000984205D01A4B984202D01A4B984204D1CF
:101D40004FF68F731A404B881A43174B984207D0AF
:101D5000164B984204D04FF6FF431A40CB881A43E3
:101D600002808B8883850B8803850A4B98420BD0B1
:101D7000094B984208D00E4B984205D00D4B984223
:101D800002D00D4B984201D10B7A03860123838246
:101D900070470000002C0140003401400004004066
:101DA00000080040000C00400010004000140040FB
:101DB00000400140004401400048014010B540F29D
:101DC00025511D4800F04AF810B31B4800F002F9F5
:101DD000C4B21A48008800F40040C8B91748008807
:101DE00000F4804060B10A2C03D000201349088021
:101DF00020E01248008840F400401049088019E0B3
:101E00000D2C06D10D48008840F480400B49088015
:101E100010E00A480088C0F30D0009490C54074837
:101E20000088401C0549088008460088C72801DD55
:101E30000020088010BD0000003801401000002084
:101E40003C00002021B1828942F40052828104E0EA
:101E500082894DF6FF731A408281704770B5024641
:101E6000002400230025002040F66A16B14200D16C
:101E700000BFC1F3421501F01F03012606FA03F368
:101E8000012D02D19689334006E0022D02D1168A37
:101E9000334001E0968A33400C12012606FA04F41E
:101EA0001688344013B10CB1012000E0002070BD51
:101EB000F0B50346002400260025002040F66A17EE
:101EC000B94200D100BF1846C1F3421401F01F0609
:101ED000012707FA06F5012C01D10C3004E0022C91
:101EE00001D1103000E014301AB107682F430760A9
:101EF00002E00768AF430760F0BD00002DE9F0473E
:101F000086B005460E460024A24600BFA146002723
:101F1000B08900B100BF2F462C8A4CF6FF700440F8
:101F2000F08804432C82AC894EF6F3100440B0884C
:101F300031890843718908430443AC81AC8A4FF668
:101F4000FF400440B0890443AC8201A8FFF7B6FC0F
:101F50001F48874202D1DDF810A001E0DDF80CA097
:101F6000A88900F4004040B10AEBCA0000EB0A1057
:101F700031684900B0FBF1F807E00AEBCA0000EB5A
:101F80000A1031688900B0FBF1F86420B8FBF0F06A
:101F900004012009642101FB1089A88900F4004094
:101FA00040B1322000EBC900B0FBF1F000F00700B7
:101FB000044308E0322000EB09106421B0FBF1F08B
:101FC00000F00F0004432C8106B0BDE8F08700004C
:101FD0000038014001468888C0F30800704700BF00
:101FE000FEE7490050EAC12018BF04204A0D18BF7F
:101FF00040F0010040F2FF72B2EB515F08BF40F0C9
:102000000200012808BF05207047014600BF704745
:1020100010B56FF00400FFF731FD0A4800680A4967
:10202000B0FBF1F0094908700846007800EB400168
:10203000C1EBC0104FF6FF7101EAC00004490880EF
:1020400010BD00002800002000127A0000000020CF
:10205000020000200146114A12784A434FF0E02363
:102060005A6100229A611A46126942F001021A610D
:1020700000BF4FF0E022106900F001021AB100F435
:102080008032002AF5D04FF0E022126922F00102DE
:102090004FF0E0231A6100229A617047000000208F
:1020A00000BF054A128802F04002002AF9D0C2B2ED
:1020B000014B1B1D1A8070470038014008B50121F3
:1020C0002420FFF7EBFB40F60210ADF800000420DF
:1020D0008DF8030003208DF8020069460C48FFF7D5
:1020E00087FA40F602110A48FFF70DFB0420ADF80D
:1020F000000010208DF8030003208DF802006946CF
:102100000448FFF775FA04210248FFF7FCFA08BDFE
:10211000000801400014014008B54FF0000AD34602
:1021200000200090FFF774FF4FF4E13000F030F929
:10213000FFF7A2F9FFF7BAF8FFF772F8804600F050
:10214000EEFB0646364A374B00F000FC044600F032
:1021500085F98346584600F0E1FD8046324A334B0C
:1021600000F0F4FB06464FF06632314B00F0A8F960
:10217000044600F073F90090584600F0CFFD044685
:1021800022460B462BA0FEF74FF8009800F0C6FD44
:10219000044622460B462AA0FEF746F8482119209D
:1021A00000F09EF800F068F8FFF74AFB4FF49670D5
:1021B000FFF750FFFFF732FB0C214FF47A7000F06D
:1021C0008FF8FEF7D7FFFFF779FF27E0584600F0BA
:1021D000A5FD044622460B461DA0FEF725F81F4824
:1021E000006801281AD10098FFF7A8FA82465046E5
:1021F00000F094FD044622460B4619A0FEF714F8A1
:1022000004211B48FFF781FA00201449086019498E
:10221000504600F052FE01D2FEF7C6FFD6E700009E
:102220009A9999999999B93F068195438B6CE33FA7
:1022300066B67440646973203D202566430D0A002C
:10224000646973203D2025666D2F730D0A00000020
:1022500054203D202566430D0A00000008000020A0
:10226000646973203D202566636D0D0A000000003F
:1022700000140140000048421FB501210220FFF771
:10228000FDFA4720ADF8040040F2E730ADF8080051
:102290000020ADF80A00ADF8060001A90F48FFF7CD
:1022A0003BFD01210D48FFF74FFC012211460B4871
:1022B000FFF770FC1D208DF8000000208DF8010054
:1022C0008DF8020001208DF803006846FFF76EFAD2
:1022D00000210248FFF73EFC1FBD00000004004043
:1022E00030B587B004460D4601210420FFF7C6FA39
:1022F00001210820FFF7D2FA601E80B2ADF8140069
:102300001020ADF81200681E80B2ADF8100004A9CC
:102310001E48FFF701FD6020ADF800000220ADF877
:1023200008000120ADF80200204604EBD071C1F393
:102330004F01ADF8061069461448FFF735FC6020E0
:10234000ADF800000020ADF808000120ADF8020053
:10235000204604EBD071C1F34F01ADF80610694679
:102360000A48FFF777FC08210848FFF769FC0821B5
:102370000648FFF7C1FC01210448FFF7D9FB002103
:102380000248FFF7E7FB07B030BD0000000800403F
:1023900010B586B00446012144F20400FFF77EFA2E
:1023A0004FF40070ADF8140003208DF816001820CB
:1023B0008DF8170005A91C48FFF71AF94FF4806043
:1023C000ADF8140004208DF8170005A91648FFF792
:1023D0000FF925208DF8000003208DF801008DF8FD
:1023E000020001208DF803006846FFF7DFF9019431
:1023F0000020ADF80800ADF80A00ADF80C00ADF80B
:1024000010000C20ADF80E0001A90848FFF776FD7A
:10241000012240F225510548FFF74AFD01210348FA
:10242000FFF710FD06B010BD000801400038014064
:1024300010B500290AD00878002807D0054878444C
:10244000FEF79CFA002801D0002010BD0248784415
:1024500010BD0000960B00008E0B000021F0004222
:10246000A2F16052B2F5801F01F0004328BFD2F103
:102470007F6C0BD95FEA001C43EAC20242EB50704A
:1024800018BF704728BF20F001007047B2F5801FC9
:10249000BCBF184670474FEA410C1CF5001F02D222
:1024A000084600F005BD70B500F0FAFA000000899A
:1024B000FFF7F6BF4FF00040A0F580007047000026
:1024C00010B591EA030F48BF83F0004300F1448345
:1024D000841A71EB030C05D2121943EB0C03001B99
:1024E00061EB0C01DFF824E14FEA1154A4EB135C1B
:1024F0001EEA430F18BF9EEA445F73D023EA0E031F
:10250000DCF1200E21EA045143F4801332D322FA85
:102510000CFE10EB0E0023FA0CFE41EB0E01CCF189
:10252000200E03FA0EFE10EB0E0051F10001B1F582
:10253000801FCCF1200E32D201EB045112FA0EF2C0
:10254000BDE8104058BF7047401C38BF5FEA4202E8
:1025500018BF7047002814BF20F0010041F10001AE
:102560004FEA410313F5001F38BF7047A1F1C04186
:1025700000F0E4BA012A43EB0302ACF1200CDCF1D9
:102580001F0E32BF4FF0000E23FA0CF310EB0300C6
:1025900041EB0451B4EB115FD0D0A1EB045101F534
:1025A000801149085FEA300001EB04510ED350F16D
:1025B000000038BF12FA0EFE08D1BDE81040C9E78E
:1025C000401C38BF5FEA4202CAD1C3E7BDE81040F1
:1025D0004FEA410313F5001F38BF7047A1F1C04116
:1025E00000F0ACBA9EEA445F08D011EA5E0FBDE885
:1025F000104004BF01F0004100207047BDE81040CA
:1026000070B500F04DFA00BF64FBBE3E0000E0FF75
:102610002DE9C04130B4DFF8A0C23CEA111418BF64
:102620003CEA131400F0EC8081EA03051CEA111463
:1026300044EAD57418BF1CEA131500F0C780A4EB58
:1026400005044FF0004545EAC12145EAC32341EAAC
:10265000505143EA525304F17F74994204F5003417
:102660004FEAC0204FEAC22208BF904200F09C808F
:102670004FEA13650FF24016765D4FEA134506FBED
:1026800005F7C7F1807706FB07F74FEAD737A7FBB7
:1026900003687642C8F58038A7FB06CE38BFA8F19C
:1026A000010807FB08E64FF0000EA6FB028CE6FBD4
:1026B00003CEDCF1000CCEF1004E38BFAEF1010EBE
:1026C000A6FB0C584FF000074FF00005E6FB0E8705
:1026D000A1FB08C6A0FB07CE16EB0E0645F10005D0
:1026E000E1FB076515F1E04E7EBFA4F580345FEA9B
:1026F00046066D4116F1800745F100054FEA1727A0
:102700004FEA066647EA0567A6F1DE46B6F1805F46
:102710004FEA15251FD9384624F0010C05EBC4718A
:10272000BCF1FE6F01EB0C1102D8F0BCBDE80081DA
:1027300024425CBF01F5801E9EEAC47F02D4F0BC37
:10274000BDE80081244238D4F0BCA1F1C041BDE80D
:10275000004100F0F3B94FEAD22242EA43524FEA75
:10276000D323A7FB02864FEAD02040EA415007FB63
:1027700003661EEA0E0F4FEAD12105FB026658BF21
:10278000A6EB0056B6EB00564FEA520E4EEAC37E59
:1027900018EB0E0E56EB530EBDD518EB02085E413A
:1027A0007F1C55F10005B6E74FF480154FF0000788
:1027B0004FF000064FF00008ADE7F0BC4FF000000E
:1027C00001F1C04101F00041BDE8008111EA0C1F98
:1027D0000CEA131500D00CE013EA0C1F00F0258062
:1027E0004FF00000F0BC81EA030101F00041BDE8B8
:1027F0000081F0BCBDE8004181EA030100F09EB910
:10280000F0BCBDE8004170B500F04AF9097EFC3E1D
:1028100000F007B881EA03014FF0000001F0004129
:10282000704781EA030100F089B9F0BCBDE80041BE
:102830004FF0000021497047FFFDFBF9F7F5F4F276
:10284000F0EEEDEBE9E8E6E4E3E1E0DEDDDBDAD84B
:10285000D7D5D4D3D1D0CFCDCCCBCAC8C7C6C5C4A9
:10286000C2C1C0BFBEBDBCBBBAB9B8B7B6B5B4B3C0
:10287000B2B1B0AFAEADACABAAA9A8A8A7A6A5A4AB
:10288000A3A3A2A1A09F9F9E9D9C9C9B9A9999986F
:102890009797969595949393929191908F8F8E8E12
:1028A0008D8C8C8B8B8A898988888787868585849F
:1028B00084838382828181800000FF070000F87F8B
:1028C0004FEA41034FEA5353A3F58063D3F11E034C
:1028D000C8BFD3F1210C0CDD4FF0004242EAC12207
:1028E00042EA505232FA03FC8CEAE17CACEBE17034
:1028F0007047102BC4BF0020704703F5787CBCF1F3
:10290000FF3F04D06FF0004282EA2100704770B5AB
:1029100000F0C6F84992248000207047F2E710F0DA
:10292000004248BF4042B0FA80F310FA03F10AD0E7
:10293000C3F11D0303F580634FEA415002EB0352DC
:1029400002EBD12170474FF000007047DFF848C11B
:1029500070B51CEA111E1EBF1CEA13159EEA0C0F6F
:1029600095EA0C0F00F06F8081EA030423EA4C1310
:102970004EEAD47E21EA4C1141F4801143F48013D5
:10298000AE44A1FB024CA0FB0365AEF17F7E36197D
:1029900055EB0C05A1FB034C4CF10003A0FB021C02
:1029A00016EB0C06654153F10003094218BF46F0CF
:1029B000010613F4007F0BD14FEA03314FEA0530D3
:1029C000340341EA155140EA16506FF003020AE061
:1029D0004FEAC3214FEAC520F40241EA555140EACB
:1029E00056506FF0020202EB2E4201EB025585EACF
:1029F000CE710AD05FEA440C18BF24F0004450F1B5
:102A0000000041F1000120EAD47040F2FE7C6245F2
:102A100000D270BDA84214BF4FF080444FF0404434
:102A2000002E08BF0024BEF1806FA8BFA1F1C041F5
:102A3000BDE8704080F282804FF0000001F1C0419B
:102A400001F0004170479EEA0C0F0CEA131518BF05
:102A500095EA0C0F06D04FF0000081EA030E0EF04D
:102A6000004170BD00F01CF88900013E00F007B87D
:102A700000F009B84FEA430C5FEA5C5C08D081EAD9
:102A8000030100F05BB84FEA410C5FEA5C5CF6D1F1
:102A90004FF00000014970470000FF070000F87F79
:102AA0000EF1020E2EF0030E5EF8046B364205D4D2
:102AB000012A43EB030515F5001F12D8012841EB4D
:102AC000010C1CF5001F0CD80ED14FEAD17C15F576
:102AD000001F0CEB4C0C0CF1020C08BF4CEBD37C30
:102AE00004E04FF0080C01E04FEAD37C0CEB4C05FE
:102AF00026FA05F606F00706B6F1040C06D20EEB30
:102B0000860CBDE870404CF0010C6047DFE80CF02B
:102B1000090B02024FF000414FF00000A1F5002127
:102B200070BD19461046012851EB010418BFD4F5B9
:102B3000001484BF002001F0004170BD0808A0F51A
:102B400000114FEA3101704710B591EA030F48BFF9
:102B500083F000433FF5BCAC841A71EB030C07D241
:102B600012198CF0004C43EB0C03001B61EB0C01C1
:102B7000DFF8A4E14FEA1154A4EB135C1EEA430F03
:102B800018BF9EEA445F00F0B08023EA6E03524211
:102B900021EA0451C3EB6E0338BF5B1EDCF1200E4B
:102BA00025D322FA0CFE10EB0E0043FA0CFE41EB8B
:102BB0000E01CCF1200E03FA0EFE10EB0E0051F1C7
:102BC0000001CCF1200E29D412FA0EF201EB0451CF
:102BD000BDE8104058BF7047401C1CBFB2F1004F09
:102BE000704700280CBF491C20F00100704712EB11
:102BF000020E43EB030218BF4FF0010E4EEA4202F1
:102C0000ACF1200CDCF11E0E54D943FA0CFE10EB93
:102C10000E0051F1FF31CCF11E0ED5D50EF1010E93
:102C200012FA0EFE404141EB010101EB445C5FEA08
:102C30005C5C10D910EBDE7001EB045138BFBEF1C3
:102C4000004FBDE8104018BF704700280CBF491C5A
:102C500020F00100704730D24FEAD42C11F500115A
:102C600024F400641BD0B1FA81F20B3AA41AA41E1A
:102C7000D2F12003914030FA03F31943904001EB65
:102C8000CC71002C01EB0451BDE81040A8BF704787
:102C900001F1C0414FF0000001F000417047B0FA6F
:102CA00080F310FA03F100D110BDE41A173C480577
:102CB000C90AE4E701EB045110BD491001EB0451CE
:102CC000BDE810404FEA300002E04FF000017047CD
:102CD0004A0008BF0042F8D0B2F5001F28BF704775
:102CE00001F000414FF0000070479EEA445F07D0BA
:102CF00011EA5E0FBDE8104004BF002100207047BC
:102D0000BDE8104070B5FFF7CBFE00BF40DFF63ED8
:102D100083F00041104670470000E0FF43004FEA97
:102D2000D30C4FEA3C0C43401FBF40070CF16051ED
:102D300013F0FE4F70471CF0006F03D100200CF021
:102D4000004170470CF0004343EA507010B540EA70
:102D5000CC0000F067F800BF000000924FEA0001CD
:102D6000FFF7ECBE4FF000414FF00000A1F500214D
:102D70007047401058BFC0F14040491058BFC1F1E2
:102D800040418142EFF300807047000010F00041A5
:102D900048BF4042B0FA80F310FA03F2C3F19D033A
:102DA0000BD051EAC35101EB1220530638BF7047D4
:102DB00000F1010008BF20F00100704750EA010C4B
:102DC00000F113801CF5000F58BFBCF5000F01D4B3
:102DD0008842704707D710F5000F58BF11F5000F54
:102DE00015D488427047894270471CF5000F04D5FE
:102DF000BCF5000FF7D5814270474FF0807C1CEB8B
:102E0000400F38BF1CEB410F01D28142704710B513
:102E100000F008F8922449004FF000504FF0805124
:102E2000FFF7A7BF0EF1020E2EF0030E5EF8044B63
:102E3000244204D44FEA4102B2F17F4F11D84FEA45
:102E40004003B3F17F4F0CD80ED14FEAD07CB2F1E2
:102E50007F4F0CEB4C0C0CF1020C08BF4CEBD17CFF
:102E600004E04FF0080C01E04FEAD17C0CEB4C037E
:102E700024FA03F404F00704B4F1040C06D20EEBB8
:102E8000840CBDE810404CF0010C6047DFE80CF00A
:102E9000070802024FF00040A0F5800010BD084670
:102EA000420018BFD2F1807288BF00F0004010BD10
:102EB000FF2141EAD050C005704751EA000C00F1F3
:102EC00013801CF5000F58BFBCF5000F01D48142E0
:102ED000704707D711F5000F58BF10F5000F15D434
:102EE00081427047894270471CF5000F04D5BCF53C
:102EF000000FF7D5884270474FF0807C1CEB410FE4
:102F000038BF1CEB400F01D28842704780EA0100B5
:102F100081EA000180EA0100FFF779BFFDF79FBA5F
:102F200002400000000000A000000000054000007A
:102F3000000000C8000000000C4000000000409CA1
:102F400000000000194000000020BCBE000000008E
:102F500034400000BFC91B8E00000004B5400000D3
:102F6000504BCFD06607E2CF010000006C4100005B
:102F70003E8251AADFEEA73401000000D9420000D2
:102F8000DCB5A0E23A301F97FFFFFFFFB445000019
:102F9000FD25A0C8E9A3C14FFFFFFFFFFF3F0000D1
:102FA0000000008000000000FF3F000000000080E3
:102FB00000000000F02F0008000000203C0000008E
:102FC0006C0100082C3000083C0000202C07000099
:102FD000880100081C00000043000000F8FFFFFF0C
:102FE0000C0000000E0000000F0000002E0000008A
:102FF00000000000000000000000000000000000D1
:10300000000000000000010203040102030406079F
:10301000080902040608000000A24A04000000009B
:0C3020000000000001020304060708097C
:0400000508000131BD
:00000001FF
